{
  "_format": "hh-sol-artifact-1",
  "contractName": "AfitID",
  "sourceName": "contracts/AfitID.sol",
  "abi": [
    {
      "inputs": [],
      "stateMutability": "nonpayable",
      "type": "constructor"
    },
    {
      "anonymous": false,
      "inputs": [
        {
          "indexed": true,
          "internalType": "address",
          "name": "owner",
          "type": "address"
        },
        {
          "indexed": true,
          "internalType": "address",
          "name": "grantedTo",
          "type": "address"
        }
      ],
      "name": "AccessGranted",
      "type": "event"
    },
    {
      "anonymous": false,
      "inputs": [
        {
          "indexed": true,
          "internalType": "address",
          "name": "owner",
          "type": "address"
        },
        {
          "indexed": true,
          "internalType": "address",
          "name": "revokedFrom",
          "type": "address"
        }
      ],
      "name": "AccessRevoked",
      "type": "event"
    },
    {
      "anonymous": false,
      "inputs": [
        {
          "indexed": true,
          "internalType": "address",
          "name": "user",
          "type": "address"
        },
        {
          "indexed": false,
          "internalType": "string",
          "name": "ipfsHash",
          "type": "string"
        }
      ],
      "name": "DataUploaded",
      "type": "event"
    },
    {
      "inputs": [
        {
          "internalType": "address",
          "name": "",
          "type": "address"
        },
        {
          "internalType": "address",
          "name": "",
          "type": "address"
        }
      ],
      "name": "canAccessData",
      "outputs": [
        {
          "internalType": "bool",
          "name": "",
          "type": "bool"
        }
      ],
      "stateMutability": "view",
      "type": "function"
    },
    {
      "inputs": [
        {
          "internalType": "address",
          "name": "_user",
          "type": "address"
        }
      ],
      "name": "getDataHash",
      "outputs": [
        {
          "internalType": "string",
          "name": "",
          "type": "string"
        }
      ],
      "stateMutability": "view",
      "type": "function"
    },
    {
      "inputs": [
        {
          "internalType": "address",
          "name": "_user",
          "type": "address"
        },
        {
          "internalType": "address",
          "name": "_canAccess",
          "type": "address"
        }
      ],
      "name": "grantAccess",
      "outputs": [],
      "stateMutability": "nonpayable",
      "type": "function"
    },
    {
      "inputs": [
        {
          "internalType": "address",
          "name": "_user",
          "type": "address"
        },
        {
          "internalType": "address",
          "name": "_caller",
          "type": "address"
        }
      ],
      "name": "hasAccess",
      "outputs": [
        {
          "internalType": "bool",
          "name": "",
          "type": "bool"
        }
      ],
      "stateMutability": "view",
      "type": "function"
    },
    {
      "inputs": [],
      "name": "owner",
      "outputs": [
        {
          "internalType": "address",
          "name": "",
          "type": "address"
        }
      ],
      "stateMutability": "view",
      "type": "function"
    },
    {
      "inputs": [
        {
          "internalType": "address",
          "name": "_user",
          "type": "address"
        },
        {
          "internalType": "address",
          "name": "_revokeFrom",
          "type": "address"
        }
      ],
      "name": "revokeAccess",
      "outputs": [],
      "stateMutability": "nonpayable",
      "type": "function"
    },
    {
      "inputs": [
        {
          "internalType": "string",
          "name": "_ipfsHash",
          "type": "string"
        }
      ],
      "name": "uploadData",
      "outputs": [],
      "stateMutability": "nonpayable",
      "type": "function"
    },
    {
      "inputs": [
        {
          "internalType": "address",
          "name": "",
          "type": "address"
        }
      ],
      "name": "userIpfsHash",
      "outputs": [
        {
          "internalType": "string",
          "name": "",
          "type": "string"
        }
      ],
      "stateMutability": "view",
      "type": "function"
    }
  ],
  "bytecode": "0x608060405234801561001057600080fd5b5033600260006101000a81548173ffffffffffffffffffffffffffffffffffffffff021916908373ffffffffffffffffffffffffffffffffffffffff160217905550611344806100616000396000f3fe608060405234801561001057600080fd5b50600436106100885760003560e01c80638da5cb5b1161005b5780638da5cb5b14610125578063c6a09d9514610143578063cb91db191461015f578063e0d74c4e1461018f57610088565b80631709ef071461008d5780634d2c6238146100bd57806350969f44146100ed5780635f6ea34014610109575b600080fd5b6100a760048036038101906100a29190610a09565b6101bf565b6040516100b49190610a64565b60405180910390f35b6100d760048036038101906100d29190610a09565b610253565b6040516100e49190610a64565b60405180910390f35b61010760048036038101906101029190610bc5565b610282565b005b610123600480360381019061011e9190610a09565b610363565b005b61012d610533565b60405161013a9190610c1d565b60405180910390f35b61015d60048036038101906101589190610a09565b610559565b005b61017960048036038101906101749190610c38565b610728565b6040516101869190610ce4565b60405180910390f35b6101a960048036038101906101a49190610c38565b6107c8565b6040516101b69190610ce4565b60405180910390f35b6000600160008473ffffffffffffffffffffffffffffffffffffffff1673ffffffffffffffffffffffffffffffffffffffff16815260200190815260200160002060008373ffffffffffffffffffffffffffffffffffffffff1673ffffffffffffffffffffffffffffffffffffffff16815260200190815260200160002060009054906101000a900460ff16905092915050565b60016020528160005260406000206020528060005260406000206000915091509054906101000a900460ff1681565b60008151116102c6576040517f08c379a00000000000000000000000000000000000000000000000000000000081526004016102bd90610d52565b60405180910390fd5b806000803373ffffffffffffffffffffffffffffffffffffffff1673ffffffffffffffffffffffffffffffffffffffff16815260200190815260200160002090816103119190610f88565b503373ffffffffffffffffffffffffffffffffffffffff167f259a579e559ab3f7888005dabd0f3b160733b0cce4bd694323f9b9303494f58e826040516103589190610ce4565b60405180910390a250565b8173ffffffffffffffffffffffffffffffffffffffff163373ffffffffffffffffffffffffffffffffffffffff16146103d1576040517f08c379a00000000000000000000000000000000000000000000000000000000081526004016103c8906110cc565b60405180910390fd5b600073ffffffffffffffffffffffffffffffffffffffff168173ffffffffffffffffffffffffffffffffffffffff1603610440576040517f08c379a00000000000000000000000000000000000000000000000000000000081526004016104379061115e565b60405180910390fd5b6000600160008473ffffffffffffffffffffffffffffffffffffffff1673ffffffffffffffffffffffffffffffffffffffff16815260200190815260200160002060008373ffffffffffffffffffffffffffffffffffffffff1673ffffffffffffffffffffffffffffffffffffffff16815260200190815260200160002060006101000a81548160ff0219169083151502179055508073ffffffffffffffffffffffffffffffffffffffff168273ffffffffffffffffffffffffffffffffffffffff167f825c8be24eb0df19500f63e86c29e7d0d951e73056b889b891d85e40938d9b6e60405160405180910390a35050565b600260009054906101000a900473ffffffffffffffffffffffffffffffffffffffff1681565b8173ffffffffffffffffffffffffffffffffffffffff163373ffffffffffffffffffffffffffffffffffffffff16146105c7576040517f08c379a00000000000000000000000000000000000000000000000000000000081526004016105be906111f0565b60405180910390fd5b600073ffffffffffffffffffffffffffffffffffffffff168173ffffffffffffffffffffffffffffffffffffffff1603610636576040517f08c379a000000000000000000000000000000000000000000000000000000000815260040161062d90611282565b60405180910390fd5b60018060008473ffffffffffffffffffffffffffffffffffffffff1673ffffffffffffffffffffffffffffffffffffffff16815260200190815260200160002060008373ffffffffffffffffffffffffffffffffffffffff1673ffffffffffffffffffffffffffffffffffffffff16815260200190815260200160002060006101000a81548160ff0219169083151502179055508073ffffffffffffffffffffffffffffffffffffffff168273ffffffffffffffffffffffffffffffffffffffff167f9f520b3bfc56d06f7065d10b4683b3f57ac8895d5026cd176dee95ce1454cb8d60405160405180910390a35050565b6000602052806000526040600020600091509050805461074790610da1565b80601f016020809104026020016040519081016040528092919081815260200182805461077390610da1565b80156107c05780601f10610795576101008083540402835291602001916107c0565b820191906000526020600020905b8154815290600101906020018083116107a357829003601f168201915b505050505081565b6060600160008373ffffffffffffffffffffffffffffffffffffffff1673ffffffffffffffffffffffffffffffffffffffff16815260200190815260200160002060003373ffffffffffffffffffffffffffffffffffffffff1673ffffffffffffffffffffffffffffffffffffffff16815260200190815260200160002060009054906101000a900460ff168061088a57508173ffffffffffffffffffffffffffffffffffffffff163373ffffffffffffffffffffffffffffffffffffffff16145b6108c9576040517f08c379a00000000000000000000000000000000000000000000000000000000081526004016108c0906112ee565b60405180910390fd5b6000808373ffffffffffffffffffffffffffffffffffffffff1673ffffffffffffffffffffffffffffffffffffffff168152602001908152602001600020805461091290610da1565b80601f016020809104026020016040519081016040528092919081815260200182805461093e90610da1565b801561098b5780601f106109605761010080835404028352916020019161098b565b820191906000526020600020905b81548152906001019060200180831161096e57829003601f168201915b50505050509050919050565b6000604051905090565b600080fd5b600080fd5b600073ffffffffffffffffffffffffffffffffffffffff82169050919050565b60006109d6826109ab565b9050919050565b6109e6816109cb565b81146109f157600080fd5b50565b600081359050610a03816109dd565b92915050565b60008060408385031215610a2057610a1f6109a1565b5b6000610a2e858286016109f4565b9250506020610a3f858286016109f4565b9150509250929050565b60008115159050919050565b610a5e81610a49565b82525050565b6000602082019050610a796000830184610a55565b92915050565b600080fd5b600080fd5b6000601f19601f8301169050919050565b7f4e487b7100000000000000000000000000000000000000000000000000000000600052604160045260246000fd5b610ad282610a89565b810181811067ffffffffffffffff82111715610af157610af0610a9a565b5b80604052505050565b6000610b04610997565b9050610b108282610ac9565b919050565b600067ffffffffffffffff821115610b3057610b2f610a9a565b5b610b3982610a89565b9050602081019050919050565b82818337600083830152505050565b6000610b68610b6384610b15565b610afa565b905082815260208101848484011115610b8457610b83610a84565b5b610b8f848285610b46565b509392505050565b600082601f830112610bac57610bab610a7f565b5b8135610bbc848260208601610b55565b91505092915050565b600060208284031215610bdb57610bda6109a1565b5b600082013567ffffffffffffffff811115610bf957610bf86109a6565b5b610c0584828501610b97565b91505092915050565b610c17816109cb565b82525050565b6000602082019050610c326000830184610c0e565b92915050565b600060208284031215610c4e57610c4d6109a1565b5b6000610c5c848285016109f4565b91505092915050565b600081519050919050565b600082825260208201905092915050565b60005b83811015610c9f578082015181840152602081019050610c84565b60008484015250505050565b6000610cb682610c65565b610cc08185610c70565b9350610cd0818560208601610c81565b610cd981610a89565b840191505092915050565b60006020820190508181036000830152610cfe8184610cab565b905092915050565b7f4950465320686173682063616e6e6f7420626520656d7074792e000000000000600082015250565b6000610d3c601a83610c70565b9150610d4782610d06565b602082019050919050565b60006020820190508181036000830152610d6b81610d2f565b9050919050565b7f4e487b7100000000000000000000000000000000000000000000000000000000600052602260045260246000fd5b60006002820490506001821680610db957607f821691505b602082108103610dcc57610dcb610d72565b5b50919050565b60008190508160005260206000209050919050565b60006020601f8301049050919050565b600082821b905092915050565b600060088302610e347fffffffffffffffffffffffffffffffffffffffffffffffffffffffffffffffff82610df7565b610e3e8683610df7565b95508019841693508086168417925050509392505050565b6000819050919050565b6000819050919050565b6000610e85610e80610e7b84610e56565b610e60565b610e56565b9050919050565b6000819050919050565b610e9f83610e6a565b610eb3610eab82610e8c565b848454610e04565b825550505050565b600090565b610ec8610ebb565b610ed3818484610e96565b505050565b5b81811015610ef757610eec600082610ec0565b600181019050610ed9565b5050565b601f821115610f3c57610f0d81610dd2565b610f1684610de7565b81016020851015610f25578190505b610f39610f3185610de7565b830182610ed8565b50505b505050565b600082821c905092915050565b6000610f5f60001984600802610f41565b1980831691505092915050565b6000610f788383610f4e565b9150826002028217905092915050565b610f9182610c65565b67ffffffffffffffff811115610faa57610fa9610a9a565b5b610fb48254610da1565b610fbf828285610efb565b600060209050601f831160018114610ff25760008415610fe0578287015190505b610fea8582610f6c565b865550611052565b601f19841661100086610dd2565b60005b8281101561102857848901518255600182019150602085019450602081019050611003565b868310156110455784890151611041601f891682610f4e565b8355505b6001600288020188555050505b505050505050565b7f4f6e6c79207468652064617461206f776e65722063616e207265766f6b65206160008201527f63636573732e0000000000000000000000000000000000000000000000000000602082015250565b60006110b6602683610c70565b91506110c18261105a565b604082019050919050565b600060208201905081810360008301526110e5816110a9565b9050919050565b7f496e76616c6964206164647265737320746f207265766f6b652061636365737360008201527f2066726f6d2e0000000000000000000000000000000000000000000000000000602082015250565b6000611148602683610c70565b9150611153826110ec565b604082019050919050565b600060208201905081810360008301526111778161113b565b9050919050565b7f4f6e6c79207468652064617461206f776e65722063616e206772616e7420616360008201527f636573732e000000000000000000000000000000000000000000000000000000602082015250565b60006111da602583610c70565b91506111e58261117e565b604082019050919050565b60006020820190508181036000830152611209816111cd565b9050919050565b7f496e76616c6964206164647265737320746f206772616e74206163636573732060008201527f746f2e0000000000000000000000000000000000000000000000000000000000602082015250565b600061126c602383610c70565b915061127782611210565b604082019050919050565b6000602082019050818103600083015261129b8161125f565b9050919050565b7f4163636573732064656e6965642e000000000000000000000000000000000000600082015250565b60006112d8600e83610c70565b91506112e3826112a2565b602082019050919050565b60006020820190508181036000830152611307816112cb565b905091905056fea2646970667358221220a2c5a576a201db47d3dc83afc44c151d6e54834d78e6373931b2c34cc77b125464736f6c63430008140033",
  "linkReferences": {},
  "deployedLinkReferences": {}
}